:020000040800F2
:100000000000022081500008A54E0008AB4E0008F9
:10001000B14E0008B74E0008BD4E000800000000B9
:10002000000000000000000000000000C34E0008B7
:10003000D14E000800000000DF4E0008ED4E000821
:10004000D1500008D1500008D1500008D15000080C
:10005000D1500008D1500008D1500008D1500008FC
:10006000D1500008D1500008D1500008D1500008EC
:10007000D1500008D1500008D1500008D1500008DC
:10008000F94E00080D4F0008214F0008D15000081C
:10009000D1500008D1500008D1500008D1500008BC
:1000A000D1500008D1500008354F0008D150000849
:1000B000514F0008654F0008D1500008794F0008E3
:1000C0008D4F0008D1500008D1500008A14F000802
:1000D000D1500008D1500008B54F0008C94F0008A2
:1000E000D1500008D1500008D1500008D15000086C
:1000F000DD4F0008D1500008D1500008D150000851
:10010000D1500008F14F0008D1500008D15000082C
:10011000D1500008D1500008D1500008D15000083B
:1001200005500008D1500008D150000819500008AF
:100130002D5000080000000000000000D150000811
:10014000D1500008D1500008D1500008D15000080B
:10015000D150000841500008D1500008D15000088B
:10016000D1500008D1500008D1500008D1500008EB
:10017000D1500008D1500008D15000080000000004
:1001800000000000D1500008000000000000000046
:10019000D15000080000000000000000D15000080D
:1001A000000000000000000000000000D150000826
:1001B000D1500008D1500008D1500008D15000089B
:0401C000D150000812
:1001D00010B5054C237833B9044B13B10448AFF381
:1001E00000800123237010BD6C030020000000007C
:1001F0003C60010808B5034B1BB103490348AFF34A
:10020000008008BD00000000700300203C60010871
:10021000034613F8012B002AFBD1181A0138704746
:1002200001F0FF01102A2BDB10F0070F08D010F8A7
:10023000013B013A8B422DD010F0070F42B3F6D1AB
:10024000F0B441EA012141EA014122F007047FF0C4
:1002500000070023F0E80256083C85EA010586EA1B
:10026000010685FA47F5A3FA87F586FA47F6A5FA57
:1002700087F68EB9EED1F0BC01F0FF0102F0070263
:1002800032B110F8013B013A83EA010313B1F8D10E
:100290000020704701387047002D06BF35460338EF
:1002A000073815F0010F07D1013015F4807F02BF28
:1002B000013015F4C03F0130F0BC0138704700BF79
:1002C00081F0004102E000BF83F0004330B54FEA07
:1002D00041044FEA430594EA050F08BF90EA020F74
:1002E0001FBF54EA000C55EA020C7FEA645C7FEA07
:1002F000655C00F0E2804FEA5454D4EB5555B8BF2A
:100300006D420CDD2C4480EA020281EA030382EA9A
:10031000000083EA010180EA020281EA0303362D2C
:1003200088BF30BD11F0004F4FEA01314FF4801CFF
:100330004CEA113102D0404261EB410113F0004F11
:100340004FEA03334CEA133302D0524263EB4303C8
:1003500094EA050F00F0A780A4F10104D5F1200E66
:100360000DDB02FA0EFC22FA05F2801841F10001C1
:1003700003FA0EF2801843FA05F359410EE0A5F195
:1003800020050EF1200E012A03FA0EFC28BF4CF0C6
:10039000020C43FA05F3C01851EBE37101F000457C
:1003A00007D54FF0000EDCF1000C7EEB00006EEB89
:1003B0000101B1F5801F1BD3B1F5001F0CD3490813
:1003C0005FEA30004FEA3C0C04F101044FEA44526A
:1003D00012F5800F80F09A80BCF1004F08BF5FEAF1
:1003E000500C50F1000041EB045141EA050130BDD1
:1003F0005FEA4C0C404141EB0101013C28BFB1F5E3
:10040000801FE9D291F0000F04BF01460020B1FA2D
:1004100081F308BF2033A3F10B03B3F120020CDA00
:100420000C3208DD02F1140CC2F10C0201FA0CF0DE
:1004300021FA02F10CE002F11402D8BFC2F1200C43
:1004400001FA02F120FA0CFCDCBF41EA0C019040F9
:10045000E41AA2BF01EB0451294330BD6FEA040442
:100460001F3C1CDA0C340EDC04F11404C4F120022D
:1004700020FA04F001FA02F340EA030021FA04F33F
:1004800045EA030130BDC4F10C04C4F1200220FA96
:1004900002F001FA04F340EA0300294630BD21FAD4
:1004A00004F0294630BD94F0000F83F4801306BF9A
:1004B00081F480110134013D4EE77FEA645C18BF8E
:1004C0007FEA655C29D094EA050F08BF90EA020F25
:1004D00005D054EA000C04BF1946104630BD91EA1D
:1004E000030F1EBF0021002030BD5FEA545C05D120
:1004F0004000494128BF41F0004130BD14F580045F
:100500003CBF01F5801130BD01F0004545F0FE41D2
:1005100041F470014FF0000030BD7FEA645C1ABF07
:10052000194610467FEA655C1CBF0B46024650EA3E
:10053000013406BF52EA033591EA030F41F400216A
:1005400030BD00BF90F0000F04BF0021704730B5F0
:100550004FF4806404F132044FF000054FF00001C5
:1005600050E700BF90F0000F04BF0021704730B586
:100570004FF4806404F1320410F0004548BF40425B
:100580004FF000013EE700BF42004FEAE2014FEAB0
:1005900031014FEA02701FBF12F07F4393F07F4F8B
:1005A00081F06051704732F07F4208BF704793F08E
:1005B0007F4F04BF41F40021704730B54FF46074A1
:1005C00001F0004521F000411CE700BF50EA0102A4
:1005D00008BF704730B54FF000050AE050EA01024D
:1005E00008BF704730B511F0004502D5404261EBBD
:1005F00041014FF4806404F132045FEA915C3FF4FE
:10060000D8AE4FF003025FEADC0C18BF03325FEA9A
:10061000DC0C18BF033202EBDC02C2F1200300FA4B
:1006200003FC20FA02F001FA03FE40EA0E0021FA70
:1006300002F11444BDE600BF70B54FF0FF0C4CF45E
:10064000E06C1CEA11541DBF1CEA135594EA0C0F10
:1006500095EA0C0F00F0DEF82C4481EA030621EA4B
:100660004C5123EA4C5350EA013518BF52EA033586
:1006700041F4801143F4801338D0A0FB02CE4FF038
:100680000005E1FB02E506F00042E0FB03E54FF068
:100690000006E1FB03569CF0000F18BF4EF0010E60
:1006A000A4F1FF04B6F5007F64F5407404D25FEA5C
:1006B0004E0E6D4146EB060642EAC62141EA55510F
:1006C0004FEAC52040EA5E504FEACE2EB4F1FD0C51
:1006D00088BFBCF5E06F1ED8BEF1004F08BF5FEACF
:1006E000500E50F1000041EB045170BD06F0004681
:1006F00046EA010140EA020081EA0301B4EB5C042E
:10070000C2BFD4EB0C0541EA045170BD41F4801125
:100710004FF0000E013C00F3AB8014F1360FDEBF4A
:10072000002001F0004170BDC4F10004203C35DA26
:100730000C341BDC04F11404C4F1200500FA05F3A9
:1007400020FA04F001FA05F240EA020001F000424A
:1007500021F0004110EBD37021FA04F642EB0601C0
:100760005EEA430E08BF20EAD37070BDC4F10C04EA
:10077000C4F1200500FA04F320FA05F001FA04F2AE
:1007800040EA020001F0004110EBD37041F100019A
:100790005EEA430E08BF20EAD37070BDC4F12005A5
:1007A00000FA05F24EEA020E20FA04F301FA05F20D
:1007B00043EA020321FA04F001F0004121FA04F2B5
:1007C00020EA020000EBD3705EEA430E08BF20EA85
:1007D000D37070BD94F0000F0FD101F000464000BF
:1007E00041EB010111F4801F08BF013CF7D041EA41
:1007F000060195F0000F18BF704703F00046520045
:1008000043EB030313F4801F08BF013DF7D043EA15
:100810000603704794EA0C0F0CEA135518BF95EACB
:100820000C0F0CD050EA410618BF52EA4306D1D152
:1008300081EA030101F000414FF0000070BD50EA71
:10084000410606BF1046194652EA430619D094EAFB
:100850000C0F02D150EA013613D195EA0C0F05D1E5
:1008600052EA03361CBF104619460AD181EA030139
:1008700001F0004141F0FE4141F470014FF00000F1
:1008800070BD41F0FE4141F4780170BD70B54FF08C
:10089000FF0C4CF4E06C1CEA11541DBF1CEA13550C
:1008A00094EA0C0F95EA0C0F00F0A7F8A4EB0504EE
:1008B00081EA030E52EA03354FEA013100F08880E5
:1008C0004FEA03334FF0805545EA131343EA1263AE
:1008D0004FEA022245EA111545EA10654FEA002663
:1008E0000EF000419D4208BF964244F1FD0404F51C
:1008F000407402D25B084FEA3202B61A65EB030578
:100900005B084FEA32024FF480104FF4002CB6EB34
:10091000020E75EB030E22BFB61A754640EA0C00B4
:100920005B084FEA3202B6EB020E75EB030E22BFF4
:10093000B61A754640EA5C005B084FEA3202B6EB35
:10094000020E75EB030E22BFB61A754640EA9C00F4
:100950005B084FEA3202B6EB020E75EB030E22BFC4
:10096000B61A754640EADC0055EA060E18D04FEA82
:10097000051545EA16754FEA06164FEAC30343EA22
:1009800052734FEAC2025FEA1C1CC0D111F4801FEF
:100990000BD141EA00014FF000004FF0004CB6E7E8
:1009A00011F4801F04BF01430020B4F1FD0C88BF87
:1009B000BCF5E06F3FF6AFAEB5EB030C04BFB6EB92
:1009C000020C5FEA500C50F1000041EB045170BD85
:1009D0000EF0004E4EEA113114EB5C04C2BFD4EBB2
:1009E0000C0541EA045170BD41F480114FF0000E36
:1009F000013C90E645EA060E8DE60CEA135594EAB2
:100A00000C0F08BF95EA0C0F3FF43BAF94EA0C0FB4
:100A10000AD150EA01347FF434AF95EA0C0F7FF429
:100A200025AF104619462CE795EA0C0F06D152EA7D
:100A300003353FF4FDAE1046194622E750EA410661
:100A400018BF52EA43067FF4C5AE50EA41047FF472
:100A50000DAF52EA43057FF4EBAE12E74FF0FF3CD7
:100A600006E000BF4FF0010C02E000BF4FF0010CA8
:100A70004DF804CD4FEA410C7FEA6C5C4FEA430C21
:100A800018BF7FEA6C5C1BD001B050EA410C0CBF70
:100A900052EA430C91EA030F02BF90EA020F0020D2
:100AA000704710F1000F91EA030F58BF994208BF39
:100AB00090422CBFD8176FEAE37040F001007047F6
:100AC0004FEA410C7FEA6C5C02D150EA013C07D14D
:100AD0004FEA430C7FEA6C5CD6D152EA033CD3D098
:100AE0005DF8040B704700BF8446104662468C4692
:100AF0001946634600E000BF01B5FFF7B7FF0028C5
:100B000048BF10F1000F01BD4DF808EDFFF7F4FFED
:100B10000CBF012000205DF808FB00BF4DF808ED78
:100B2000FFF7EAFF34BF012000205DF808FB00BF9B
:100B30004DF808EDFFF7E0FF94BF012000205DF8BD
:100B400008FB00BF4DF808EDFFF7CEFF94BF012072
:100B500000205DF808FB00BF4DF808EDFFF7C4FF6B
:100B600034BF012000205DF808FB00BF4FEA410CB4
:100B70007FEA6C5C02D150EA013C0AD14FEA430C97
:100B80007FEA6C5C02D152EA033C02D14FF00000D4
:100B900070474FF0010070474FEA410212F5001212
:100BA00015D211D56FF47873B3EB625212D94FEAB4
:100BB000C12343F0004343EA505311F0004F23FA9E
:100BC00002F018BF404270474FF00000704750EAF3
:100BD000013005D111F0004008BF6FF000407047B0
:100BE0004FF00000704700BF4FEA4102B2F1E0430E
:100BF00024BFB3F5001CDCF1FE5C0DD901F0004C04
:100C00004FEAC0024CEA5070B2F1004F40EB830053
:100C100008BF20F00100704711F0804F21D113F17F
:100C20003872BCBF01F00040704741F480114FEAB8
:100C30005252C2F11802C2F1200C10FA0CF320FA41
:100C400002F018BF40F001004FEAC1234FEAD3235E
:100C500003FA0CFC40EA0C0023FA02F34FEA4303C8
:100C6000CCE77FEA625307D150EA01331EBF4FF051
:100C7000FE4040F44000704701F0004040F0FE406C
:100C800040F40000704700BF7BB972B90029BEBFB5
:100C900000204FF0004106E008BF00281CBF6FF0A5
:100CA00000414FF0FF3000F0B9B9ADF1080C6DE92B
:100CB00004CE002909DB002B1ADB00F04DF8DDF82B
:100CC00004E0DDE9022304B07047404261EB4101DA
:100CD000002B1BDB00F040F8DDF804E0DDE9022327
:100CE00004B0404261EB4101524263EB4303704761
:100CF000524263EB430300F02FF8DDF804E0DDE936
:100D0000022304B0404261EB41017047524263EB61
:100D1000430300F021F8DDF804E0DDE9022304B02C
:100D2000524263EB4303704753B94AB9002908BFE5
:100D300000281CBF4FF0FF314FF0FF3000F06EB9BC
:100D4000ADF1080C6DE904CE00F006F8DDF804E022
:100D5000DDE9022304B070472DE9F047089D044601
:100D60008C46002B40F083808A42174647D9B2FA5E
:100D700082F242B1C2F1200024FA00F09140974083
:100D800040EA010C94404FEA1748230CBCFBF8F6EC
:100D90001FFA87FE08FB16C143EA014306FB0EF16A
:100DA000994209D9FB1806F1FF3080F01981994268
:100DB00040F21681023E3B445B1AA4B2B3FBF8F04A
:100DC00008FB103344EA034400FB0EFEA64509D994
:100DD0003C1900F1FF3380F00581A64540F2028105
:100DE00002383C4440EA0640A4EB0E0400261DB144
:100DF000D4400023C5E900433146BDE8F08702B97D
:100E0000FFDEB2FA82F2002A50D1CB1B4FEA174E16
:100E10001FFA87F80126B3FBFEFC210C0EFB1C33E6
:100E200041EA034108FB0CF38B4207D979180CF116
:100E3000FF3002D28B4200F2E9808446C91AA3B285
:100E4000B1FBFEF00EFB101143EA014408FB00F871
:100E5000A04507D93C1900F1FF3302D2A04500F2AA
:100E6000D9801846A4EB080440EA0C40BFE78B4247
:100E700009D9002D00F0B1800026C5E900013046F7
:100E80003146BDE8F087B3FA83F6002E4AD18B4293
:100E900002D3824200F2B880841A61EB0301012080
:100EA0008C46002DA8D0C5E9004CA5E7C2F120036F
:100EB00020FA03F6974001FA02F04FEA174ED940A4
:100EC0003043030CB1FBFEF61FFA87F80EFB161138
:100ED00043EA014306FB08F1994204FA02F409D9F6
:100EE000FB1806F1FF3C80F08D80994240F28A8029
:100EF000023E3B445B1A81B2B3FBFEF00EFB1033A3
:100F000041EA034100FB08F38B4207D9791800F14D
:100F1000FF3C73D28B4271D902383944CB1A40EA74
:100F2000064678E7C6F1200C03FA06F422FA0CF321
:100F30001C4320FA0CF701FA06F34FEA144E21FA8B
:100F40000CF11F433B0CB1FBFEF91FFA84F80EFBBA
:100F5000191143EA014109FB08FA8A4502FA06F22F
:100F600000FA06F308D9611809F1FF3048D28A4522
:100F700046D9A9F102092144A1EB0A01BFB2B1FB94
:100F8000FEF00EFB101147EA014700FB08F8B845D8
:100F900007D9E71900F1FF312ED2B8452CD9023814
:100FA000274440EA0940A7EB0807A0FB02894F4508
:100FB000C64649461AD317D05DB1B3EB0E0267EBB4
:100FC000010707FA0CFCF2404CEA0202F740C5E9BF
:100FD000002700263146BDE8F0872E4628460BE75D
:100FE0000646E9E61846FDE64345E5D2B8EB020EB3
:100FF00069EB04010138DFE70846D2E760468DE778
:101000008146B9E7664675E730464AE7ACF1020C1F
:10101000394413E702383C4424E700BF704700BF5F
:1010200080B483B000AF78607B6803221A707B685D
:1010300000225A707B6803229A707B680322DA7060
:101040007B6803221A717B6803225A7100BF0C3738
:10105000BD465DF8047B704780B58AB004AFF86088
:101060000B467A60FB72FB689B8C5B00FB82FB6823
:10107000986AFB7A9AB2F98A41F288330293022382
:10108000019307F114030093012305F07BFF03464E
:10109000002B0BD17B7D1B021AB23B7D1BB213438D
:1010A0001BB29AB27B681A80012300E00023184625
:1010B0001837BD4680BD90B58BB004AFF8607A603C
:1010C0001A460B46FB721346BB72FB689B8C5B0097
:1010D000FB82FB68986AFB7A9AB2BB7A9BB2F98A68
:1010E00041F28834029401937B680093012305F058
:1010F00049FF0346002B01D1002300E001231846DD
:101100001C37BD4690BD80B582B000AF78607B686B
:101110001A4688217868FFF79FFF0346002B6FD09F
:101120007B6802331A468A217868FFF795FF0346E9
:10113000002B65D07B6804331A468C217868FFF752
:101140008BFF0346002B5BD07B6806331A468E214B
:101150007868FFF781FF0346002B51D07B68083386
:101160001A4690217868FFF777FF0346002B47D097
:101170007B680A331A4692217868FFF76DFF0346B1
:10118000002B3DD07B680C331A4694217868FFF71A
:1011900063FF0346002B33D07B680E331A4696213B
:1011A0007868FFF759FF0346002B29D07B6810337E
:1011B0001A4698217868FFF74FFF0346002B1FD08F
:1011C0007B6812331A469A217868FFF745FF034679
:1011D000002B15D07B6814331A469C217868FFF7E2
:1011E0003BFF0346002B0BD07B6816331A469E212B
:1011F0007868FFF731FF0346002B01D0012300E0A0
:10120000002318460837BD4680BD80B584B000AFC6
:1012100078607B6803F118020123A1217868FFF749
:101220004AFF0346002B4BD17B681A331A46E12153
:101230007868FFF711FF0346002B41D07B6803F16C
:101240001C020123E3217868FFF735FF0346002BDA
:1012500036D107F10E031A46E4217868FFF7FCFE49
:101260000346002B2CD007F10C031A46E5217868C1
:10127000FFF7F2FE0346002B22D07B6803F1220227
:101280000123E7217868FFF716FF0346002B17D1EB
:10129000FB891B011BB203F47F631AB2FB891B128B
:1012A0001BB203F00F031BB213431AB27B68DA833D
:1012B000BB891B099BB21AB27B681A84012300E028
:1012C000002318461037BD4680BD80B588B004AFF6
:1012D00078600B46FB701346BB707B689B8C5B0091
:1012E000FB817B68986AFB789AB2F98942F21073A5
:1012F000029301230193BB1C0093012305F048FDD9
:101300000346002B01D1002300E0012318461037CB
:10131000BD4680BD80B584B000AF786039607B6821
:101320009B8C762B05D07B689B8C772B01D0002380
:1013300099E07B6803F132020123D0217868FFF73E
:10134000BAFE0346002B01D000238CE07B6893F8A3
:101350003230582B06D07B6893F83230602B01D0A6
:10136000002380E0B622E0217868FFF7AEFF034655
:10137000002B01D0002376E007F10C020123F321BA
:101380007868FFF798FE0346002BF5D13B7B03F00E
:101390000103002BF0D17868FFF7B5FE034683F018
:1013A0000103DBB2002B00D101E000235BE07B688E
:1013B00093F83230602B0AD17868FFF726FF034696
:1013C00083F00103DBB2002B01D000234BE03B682C
:1013D0005B795B015AB23B685B789B005BB213435D
:1013E0005BB2FB73FB7B1A46F5217868FFF76DFF54
:1013F0000346002B01D0002335E03B681B78012B0E
:1014000002D13B6800221A703B68DB785B015AB25C
:101410003B689B789B005BB213435AB23B681B78D6
:101420005BB213435BB2BB737B6893F83230602BC3
:101430000DD13B681B797B737B7B1A46F221786860
:10144000FFF743FF0346002B01D000230BE0BB7BDB
:101450001A46F4217868FFF738FF0346002B01D0C5
:10146000002300E0012318461037BD4680BD80B43C
:1014700087B000AFF860B9607A60BB68DA10FB68CB
:101480001B885B00D31AFA68B2F9022002FB03F34F
:10149000DB127B61BB681B11FA6812889B1ABA6861
:1014A0001211F9680988521A02FB03F31B13FA6838
:1014B000B2F9042002FB03F39B133B617A693B6999
:1014C0001A447B681A607B681A6813469B001344B1
:1014D00080331B1218461C37BD465DF8047B7047ED
:1014E0002DE9B04F9CB000AF78653965FA64FB6CAC
:1014F0001A464FEAE273B2F5FA3443F1FF35C7E911
:101500001A45FA6EBB6E03FB02F1FA6EBB6E03FB6B
:1015100002F3CA18BB6EA3FB034553191D467B6D2E
:10152000B3F910301AB24FEAE27302FB05F004FB84
:1015300003F10144A4FB022319440B46C7E9182315
:10154000C7E918237B6DB3F90E301AB24FEAE27384
:10155000B96E03FB01F0F96E02FB01F10844B96EAC
:10156000A1FB0223C1180B464FF000004FF0000111
:10157000590441EAD2315004D7E9182312EB00088C
:1015800043EB0109C7E918897B6DB3F90C301AB236
:101590004FEAE2734FF000004FF00001D10000204D
:1015A000D7E918231418BC614B41FB61D7E9063415
:1015B000C7E91834FA6EBB6E03FB02F1FA6EBB6E1C
:1015C00003FB02F3CA18BB6EA3FB034553191D4668
:1015D0007B6DB3F90A301AB24FEAE27302FB05F0F1
:1015E00004FB03F10144A4FB022319440B464FF012
:1015F00000084FF000094FEA122848EA03684FEA52
:1016000023297B6DB3F908301AB24FEAE273B96E41
:1016100003FB01F0F96E02FB01F14418B96EA1FB66
:101620000201631819464FF000024FF000030B034C
:1016300043EA1053020318EB0201396149EB03033B
:101640007B61D7E90434C7E91A34D7E91A23111C9E
:10165000396443F500437B647B6DDB889AB24FF0BD
:101660000003D7E91045294602FB01F0214601FBA2
:1016700003F101442046A0FB022319440B464FF01E
:1016800000004FF000015810D917C7E91A01D7E937
:101690001A23134301D10023E1E03B6DC3F580130E
:1016A0001A464FEAE273C7E91623BB6D5B10FB6372
:1016B000BB6DDB07BB63D7E91823D7E90E4521468D
:1016C000B1EB020A294661EB030B52465B469118C7
:1016D000B9605B41FB60D7E9022312EB0A0243EBDE
:1016E0000B034FF000004FF00001990141EA9261B5
:1016F0009001121841EB03034FF000004FF000017E
:10170000990041EA9271900002460B4612EB0A02E0
:1017100043EB0B034FF000004FF00001990041EA4A
:101720009271900002460B4612EB0A01396343EBBB
:101730000B037B63D7E91A23D7E90C01FFF7A4FA5F
:1017400002460B46C7E916237B6DB3F9163018B273
:101750004FEAE071D7E916454FF000024FF0000361
:10176000620B42EAC5426B1302FB01F500FB03F476
:101770002C44A0FB020163181946D7E916454FF027
:1017800000024FF00003620B42EAC5426B1302FBFA
:1017900001F500FB03F42C44A0FB02016318194679
:1017A0004FF000024FF00003420E42EAC1124B1606
:1017B000C7E91A237B6DB3F914301AB24FEAE2730A
:1017C000B96D03FB01F0F96D02FB01F14418B96D2D
:1017D000A1FB0201631819464FF000024FF000030D
:1017E000C20C42EA4132CB14C7E91823D7E91601EB
:1017F000D7E91A238418BC6241EB0303FB62D7E9E3
:101800001823D7E90A45214689183962294643EB4E
:10181000010179624FF000004FF00001D7E908455F
:101820002346180A2B4640EA03602B4619127B6DAB
:10183000B3F912301CB24FEAE4754FF000024FF0DA
:1018400000032B0143EA1473220184183C6041EB2E
:1018500003037B60D7E90034C7E91634BB6D184633
:101860007037BD46BDE8B08F80B487B000AFF86078
:10187000B9607A607B68A3F596337B61BB689A0395
:10188000FB68B3F91E301B05D21AFB68B3F9203090
:1018900019467B6903FB01F3D31A03F58043DB137D
:1018A000FA6892F9222011467A6902FB01F292123B
:1018B000F968097F0846796901FB00F1C91201F551
:1018C000004101FB02F2921202F50012F968B1F92F
:1018D0001A1001FB02F202F50052921302FB03F30D
:1018E0007B617B69DB137A69D21302FB03F3DB11A3
:1018F000FA68127E02FB03F31B117A69D31A7B612B
:101900007B6923EAE3737B617B69B3F1C85FA8BF9E
:101910004FF0C8537B617B691B1318461C37BD46CB
:101920005DF8047B704780B58CB000AFF860B9609B
:101930007A603B60FB6893F83230602B07D03B68DD
:10194000002B02D03B6800221A6000233B603B68FA
:10195000002B01D0082300E00623FB62FB6ADBB208
:1019600007F11802F721F868FFF7A5FB0346002BE3
:1019700001D0002338E03B7E1A037B7E1B0113431A
:10198000BA7E1209D2B21343BB62FB7E1A033B7FBD
:101990001B0113437A7F1209D2B213437B6207F112
:1019A00014031A46796AF868FFF761FD0246BB68BE
:1019B0001A607B691A46B96AF868FFF791FD02461A
:1019C0007B681A603B68002B0DD0BB7F1B02FA7F3F
:1019D00013433B627B691A46396AF868FFF744FF94
:1019E00002463B681A60012318463037BD4680BD69
:1019F00080B588B000AFF860B9607A603B603B6842
:101A0000002B02D007F1140300E0002307F11802B5
:101A100007F11C01F868FFF786FF0346002B28D06A
:101A2000FB6907EE903AB8EEE77ADFED146AC7EE8D
:101A3000267ABB68C3ED007ABB6907EE903AB8EE30
:101A4000677ADFED0F6AC7EE267A7B68C3ED007A0E
:101A50003B68002B0BD07B6907EE903AB8EE677AB3
:101A6000DFED086AC7EE267A3B68C3ED007A0123F2
:101A700000E0002318462037BD4680BD0000C84264
:101A8000000080430000804480B485B000AF7860DF
:101A90007B68642202FB03F31B136433FB60FB6867
:101AA00018461437BD465DF8047B704780B400AF1C
:101AB000094B00221A80094B00221A80084B002291
:101AC0001A80084B00221A80074B00221A8000BFA0
:101AD000BD465DF8047B7047080C0020AC03002075
:101AE000A8030020AA030020A603002080B584B02C
:101AF00000AF78607B68012B20D100224FF40051A9
:101B0000114804F0CDFF012003F056FB0A23012207
:101B10000E490F480AF08AFB01224FF400510A488F
:101B200004F0BEFF094B1A8847F6F8731340FB8197
:101B3000FB89DB08FB81FB899B08FB81FB8918463D
:101B40001037BD4680BD00BF00000240B803002032
:101B5000581D0020B0B58AB000AFF86087ED000BCB
:101B6000B96000237B626CE07B6A1B01FA68134456
:101B7000D3E90023D7E90001FEF7E4FF0346002B79
:101B80005CD07B6A01331B01FA681344D3E900235C
:101B9000D7E90001FEF7CCFF0346002B4ED07B6A4D
:101BA0001B01FA681344D3E90023D7E90001FEF7CB
:101BB0008BFB02460B46C7E906237B6A01331B01F8
:101BC000FA681344D3E900017B6A1B01FA681344E5
:101BD000D3E90023FEF778FB02460B46C7E904234E
:101BE0007B6A1B01FA681344D3E902457B6A01331F
:101BF0001B01FA681344D3E902017B6A1B01FA68EE
:101C00001344D3E90223FEF75FFB02460B4610465E
:101C10001946D7E90623FEF70FFD02460B4610468C
:101C20001946D7E90423FEF731FE02460B4620464B
:101C30002946FEF74BFB02460B460BE07B6A01335D
:101C40007B62BB68013B7A6A9A428DDB4FF00002EF
:101C50004FF0000343EC172BB0EE470AF0EE670A93
:101C60002837BD46B0BD000080B586B002AF7860B1
:101C700020210E4804F02DFF00224FF480710B4804
:101C800004F00EFF07F10E02391D02230093012319
:101C900007480AF0DCFB01224FF48071034804F08E
:101CA000FFFEFB8918461037BD4680BD000002408C
:101CB000581D002080B489B000AF7860374B1A6897
:101CC0007B68D31ABB617B687B61F0EE047AB1EE6E
:101CD000677ABB6907EE903AF8EEE77A67EE277A03
:101CE000C7ED047A2E4B1A68BB6913442C4A136063
:101CF0002B4B1B686422934202DD6422284B1A603E
:101D0000274B1B686FF06302934203DA6FF06302A4
:101D1000234B1A60F1EE027AB1EE677A204B1B6812
:101D200007EE903AF8EEE77A67EE277AC7ED037A86
:101D3000DFED1C7AB1EE677A1B4B1A687B69D31A08
:101D400007EE903AF8EEE77A67EE277AC7ED027A67
:101D5000154A7B69136097ED047AD7ED037A37EE65
:101D6000277AD7ED027A77EE277AFDEEE77A17EE3B
:101D7000903AFB61FB69B3F57A7F02DD40F2E9330B
:101D8000FB61FB69002B01DA0023FB61FB6918464C
:101D90002437BD465DF8047B704700BFC4030020B4
:101DA000040C0020CDCCCC3D6C0C002080B584B060
:101DB00000AF78604FF00003FB607B689C2B17DD61
:101DC0007B6840F66142934212DC7868FEF7CAFBFA
:101DD00002460B46162143EC102B1048FFF7BAFEC3
:101DE00053EC102B10461946FEF7FEFE0346FB602F
:101DF0007B6840F66142934201DD094BFB607B68E2
:101E00009C2B02DC4FF07D53FB60FB6807EE903AA1
:101E1000B0EE670A1037BD4680BD00BF100000203D
:101E20000000C6420000000080B584B000AF002270
:101E30004FF480511B4804F033FE4FF4FA7003F066
:101E4000BBF901224FF48051164804F029FE164BCD
:101E50001B8907EE903AB8EE677ADFED146AC7EE99
:101E6000267AB2EE0C7A67EE877AC7ED037A104BCA
:101E70001B78002B5AD0F868FEF786FB02460B460B
:101E80000C490D4811F050FE0346DAB20B4B1A70A4
:101E90000A4B1B789AB20A23074909480CF063FAE7
:101EA00044E000BF00000240B00800200000804570
:101EB0008B0300205860010878060020B005002040
:101EC0005C2E00204FF4F040FFF7CEFE0346B04AF0
:101ED0001360AF4B1B684EF6FF02934226D0AD4B0A
:101EE0001B78002B22D0AC49AC4811F01DFE0346F4
:101EF000DAB2AB4B1A70AA4B1B789AB20A23A749E5
:101F0000A8480CF030FAA24B1B681A46A649A34811
:101F100011F00AFE0346DAB2A14B1A70A04B1B78EF
:101F20009AB20A239D499F480CF01DFA9F4BD3EDAE
:101F3000007A97ED037AB4EEE77AF1EE10FAC1D4A5
:101F4000934B1B684EF6FF029342BBD1914B1B781B
:101F5000002B1FD09649914811F0E6FD0346DAB2F6
:101F60008F4B1A708E4B1B789AB20A238B498D487F
:101F70000CF0F9F98F49894811F0D6FD0346DAB221
:101F8000874B1A70864B1B789AB20A23834985487F
:101F90000CF0E9F945F29D60FFF766FE4FF47A70A8
:101FA00003F00AF9844BDB881A46844B1A60824B93
:101FB0009B881A46824B1A60804B1B681846FEF7B6
:101FC000D1FA02460B4670A1D1E90001FEF75EFC92
:101FD00002460B4610461946FEF706FE0346794AAE
:101FE00013606C4B1B78002B3CD0754B1B681A465A
:101FF00075496A4811F098FD0346DAB2684B1A70C9
:10200000674B1B789AB20A23644966480CF0ABF917
:102010006A4B1B681A466D49604811F085FD0346FE
:10202000DAB25F4B1A705E4B1B789AB20A235B4997
:102030005C480CF098F9634B1B681846FEF7A4FA4D
:1020400002460B466249554811F06EFD0346DAB26E
:10205000534B1A70524B1B789AB20A234F4951487E
:102060000CF081F945F28960FFF7FEFD494B1B78C2
:10207000002B6BD0514B1B6807EE903AB8EEE77A15
:10208000504BD3ED007A67EE277A17EE900AFEF7F1
:102090007BFA02460B464F49404811F045FD034686
:1020A000DAB23F4B1A703E4B1B789AB20A233B4977
:1020B0003C480CF058F9414B1B6807EE903AB8EEDB
:1020C000E77A404BD3ED007A67EE277AFDEEE77AA8
:1020D00017EE900AFFF76AFE10EE103A1846FEF768
:1020E00053FA02460B463C492C4811F01DFD0346AD
:1020F000DAB22B4B1A702A4B1B789AB20A23274963
:1021000028480CF030F92E4B1B681A4633492348F7
:1021100011F00AFD0346DAB2214B1A70204B1B78EE
:102120009AB20A231D491F480CF01DF92C491B487F
:1021300011F0FAFC0346DAB2194B1A70184B1B78EF
:102140009AB20A23154917480CF00DF91A4B1B894E
:1021500007EE903AB8EE677ADFED226AC7EE267A8C
:10216000B2EE0C7A67EE877AC7ED037AF0EE006A7A
:1021700097ED037AC6EE877A9FED1B7A67EE877A32
:10218000FDEEE77A32E000BF00000000003493402B
:10219000C80300208B03002070600108780600202F
:1021A000B00500205C2E0020846001080C00002097
:1021B0008C6001089C600108B0080020C00300206A
:1021C000C4030020CC030020B8600108E0600108CF
:1021D000086101082C6101084C6101085C6101087B
:1021E0006C6101080000804500007A4417EE903AC7
:1021F000BB606F4ABB6813646E4B1B78002B25D005
:10220000F868FEF7C1F902460B466B496B4811F0BE
:102210008BFC0346DAB26A4B1A70694B1B789AB290
:102220000A23664967480CF09EF8BA686649634815
:1022300011F07AFC0346DAB2614B1A70604B1B78DE
:102240009AB20A235D495F480CF08DF841F288305C
:1022500002F0B2FF5D4B7B6051E05D4B1B8907EEE6
:10226000903AB8EE677ADFED5B6AC7EE267AB2EE97
:102270000C7A67EE877AC7ED037AD7ED016A97ED9E
:10228000037AC6EE877A9FED547A67EE877AFDEE81
:10229000E77A17EE903ABB60BB68B3F57A7F02DD50
:1022A00040F2E933BB60424ABB681364414B1B7880
:1022B000002B10D0BA684449404811F035FC034661
:1022C000DAB23F4B1A703E4B1B789AB20A233B4955
:1022D0003C480CF048F84FF47A7002F06DFF7868D3
:1022E000FEF752F930A3D3E90023FDF7EFFF0246D2
:1022F0000B4610461946FEF777FC03467B60D7ED88
:10230000017AB2EE0A7AF4EEC77AF1EE10FA09D544
:10231000324BD3ED007A97ED037AB4EEE77AF1EE23
:1023200010FA9ADC02E0FA2002F046FF284B9B8864
:102330001A462B4B1B689A4215DD254B1B8907EE6D
:10234000903AB8EE677ADFED236AC7EE267AB2EEEE
:102350000C7A27EE877A214BD3ED007AB4EEE77A38
:10236000F1EE10FADFDC124B00221A64FFF79EFB3D
:102370000221002000F044FA0E4B1B78002B0FD0F6
:1023800018490E4811F0D0FB0346DAB20C4B1A7014
:102390000B4B1B789AB20A2308490A480BF0E3FF5B
:1023A00000BF1037BD4680BD9A9999999999D93F38
:1023B000000001408B0300205860010878060020CF
:1023C000B00500205C2E002080610108000008415B
:1023D000B00800200000804500007A440C00002076
:1023E000C40300209461010880B584B000AF786018
:1023F0007B68002B6DD1394B9B881A46384B1A608D
:10240000364B1B8907EE903AB8EE677ADFED356AF6
:10241000C7EE267AB2EE0C7A67EE877AC7ED037ABA
:102420002F4B1B68B3F5FA7F03DB2F4B1B68002B88
:102430003DD02E4BD3ED007A97ED037AB4EEE77AD8
:10244000F1EE10FA33DD264B1B681846FFF732FC1D
:1024500003467B81264A7B891364264B1B78002B1D
:1024600029D07B891A462449244811F05DFB034694
:10247000DAB2234B1A70224B1B789AB264231F499D
:1024800020480BF070FF164B1B681A461E491B486C
:1024900011F04AFB0346DAB2194B1A70184B1B783D
:1024A0009AB26423154917480BF05DFF03E0104B07
:1024B00000221A6400E000BF0C4BD3ED007A97EDC8
:1024C000037AB4EEE77AF1EE10FA00D401E0FFF7F8
:1024D000ABFC00BF1037BD4680BD00BFB008002078
:1024E000BC03002000008045C40300200C00002035
:1024F000000001408B030020AC6101087806002039
:10250000B00500205C2E0020B861010880B584B0C1
:1025100000AF78607B68002B02D1094BDB88FB6041
:102520007B68012B02D1064BDB89FB60F868FFF763
:102530003DFCF0EE407AB0EE670A1037BD4680BD34
:10254000B008002084B090B400AF07F1080484E81C
:102550000F000BE097F82D30013BDBB287F82D30F0
:1025600097F82E303C33DBB287F82E30BA7C97F8E0
:102570002E309A42EED897F82E20BB7CD31ADAB2CE
:102580003B6C9A720BE097F82C30013BDBB287F87A
:102590002C3097F82D303C33DBB287F82D307A7C25
:1025A00097F82D309A42EED897F82D207B7CD31ADD
:1025B000DAB23B6C5A7297F82C203B7CD31ADAB211
:1025C0003B6C1A7200BFBD4690BC04B0704700005F
:1025D00080B400AF734B1A69734B1B69D31A07EEB3
:1025E000903AF8EEE77A714BC3ED007A6D4B5A6979
:1025F0006D4B5B69D31A07EE903AF8EEE77A6C4BB5
:10260000C3ED007A6B4BD3ED007AB1EE677A6A4B7B
:102610001A68654B1B69D31A07EE903AF8EEE77A11
:1026200027EE277A654B1A685F4B5B69D31A07EE72
:10263000903AF8EEE76A624BD3ED007A66EEA77A3D
:1026400077EE276A594BD3ED007AB1EE677A594B92
:10265000D3ED007A27EE277A594B93ED006A544B5D
:10266000D3ED007A66EE277A37EE277AC6EE877AC0
:10267000544BC3ED007A514B1A684B4B5B69D31A2C
:1026800007EE903AB8EEE77A484BD3ED007A27EEA2
:10269000277A494B1A68444B1B69D31A07EE903AC4
:1026A000F8EEE76A424BD3ED007A66EEA77A77EE52
:1026B000676A3E4BD3ED007AB1EE677A3D4BD3EDBE
:1026C000007A27EE277A3E4B93ED006A384BD3ED24
:1026D000007A66EE277A37EE277AC6EE877A3A4B8B
:1026E000C3ED007A374BD3ED007AF5EEC07AF1EE08
:1026F00010FA00DA50E0334BD3ED007AB7EE007AEF
:10270000F4EEC77AF1EE10FA00D945E02E4BD3ED86
:10271000007AF5EEC07AF1EE10FA00DA3CE02A4BCE
:10272000D3ED007AB7EE007AF4EEC77AF1EE10FA44
:1027300000D931E0204B1B6807EE903AB8EEE77AFB
:10274000214BD3ED006A1E4BD3ED007A66EEA77ADB
:1027500077EE277AFDEEE77A17EE902A1B4B1A6088
:10276000164B1B6807EE903AB8EEE77A164BD3ED9E
:10277000006A104BD3ED007A66EEA77A77EE277ADF
:10278000FDEEE77A17EE902A114B1A60114B1B8869
:1027900001339AB20F4B1A8000BFBD465DF8047B2F
:1027A000704700BFEC04002008060020E40400206D
:1027B000F80C00209C3F00207001002074010020D4
:1027C000400B0020000D002020040020A03F00202E
:1027D000A83F0020D003002080B58AB000AF786009
:1027E000064BBB6007F108037968184608F027F824
:1027F000034618462837BD4680BD00BF002800406C
:1028000080B58AB000AF78603960084BBB6006F0D5
:102810000BFE07F108033A687968184607F0F5FFE0
:1028200006F016FE00BF2837BD4680BD00280040D8
:10283000F0B593B00CAFC24B00221A6402F04AFC10
:1028400000F0BAFD01F090FA01F004FA01F0AEF9DF
:1028500001F022F800F0ECFE00F05EFF01F028F934
:1028600000F020FE01F0D8F800F08EFF01F04AF9E8
:1028700000F032FF0DF0D4FC01F070F801F0C0F967
:1028800000F004FFAF48FEF7CBFBAF4B76229A84F3
:10289000AD4BAE4A9A62AE480AF01AFAAD480AF059
:1028A00017FAAD480AF014FAAC480AF011FAAC482D
:1028B0000AF00EFA0021A9480AF03AFC0421A748C0
:1028C0000AF036FC0021A2480AF01AFB0C21A448A9
:1028D0000AF016FB0922A349A34802F015FE9B4803
:1028E00004F012F9A14809F0DCFA0822A049A14835
:1028F0000BF04AFE6422A049A0480BF045FE0122DD
:102900004FF400519E4804F0CBF801224FF480713F
:102910009B4804F0C5F8012240219A4804F0C0F811
:1029200001224FF48061964804F0BAF8964B1A6879
:10293000964B1B68D31A07EE903AF8EEE77A944B61
:10294000C3ED007A934B1A68934B1B68D31A07EEBA
:10295000903AF8EEE77A914BC3ED007A904B1B78F2
:10296000012B3CD10F2010F0FCF910F077FA10F099
:102970001FFA00219FED8B0A082010F097FB002121
:102980009FED880A072010F091FB00219FED850A3A
:10299000062010F08BFB00219FED820A052010F02D
:1029A00085FB00219FED7F0A042010F07FFB0021B2
:1029B0009FED7C0A032010F079FB00219FED790A3E
:1029C000022010F073FB00219FED760A012010F029
:1029D0006DFB4FF47A7002F0EFFB10F0E9F9724BE7
:1029E0001B78012B40F008810122704970480FF0DC
:1029F00073FC0346002B40F0EF806E496E4811F0E7
:102A000093F80346DAB26D4B1A706C4B1B789AB28E
:102A10000A23694957480BF0A6FC694A07F10C03E1
:102A200092E8030083E80300664A3B4607CA03C3F3
:102A30001A800023FB7546E0FB7D634AA2FB03235B
:102A4000DB08DBB23033DBB27B73FA7D5E4BA3FB7A
:102A50000213D9080B469B000B445B00D31ADBB270
:102A60003033DBB2BB73FB7D574AA2FB0323DB0889
:102A7000DBB23033DBB2FB70FA7D534BA3FB0213A6
:102A8000D9080B469B000B445B00D31ADBB23033F2
:102A9000DBB23B7107F10C03012219464B480FF0E2
:102AA00061FC0346002B08D010F082F9FB7D022266
:102AB0001946022010F0B2FA08E0444810F030F84D
:102AC000FB7D0133FB75FB7D632BB5D907F10C034F
:102AD0003A2219463D480FF045FC0346002B12D11F
:102AE00007F10C031A463A49334811F01DF8034622
:102AF000DAB2324B1A70314B1B789AB20A232E4944
:102B00001C480BF030FC3B463A22194631480FF086
:102B100029FC0346002B6FD13B461A462C49264818
:102B200011F002F80346DAB2244B1A70234B1B78DB
:102B30009AB20A2320490F480BF015FC5CE000BF55
:102B400000000140542E0020282E0020B405002053
:102B5000002F0020F8090020400A0020B01D0020AE
:102B60001C0C0020B0080020C4080020581D0020C4
:102B7000B00300205C2E00204C050020080500203A
:102B8000000002400008024070010020780100208F
:102B9000400B0020740100207C0100209C3F00209D
:102BA0008E0300200000000092030020B43F0020AC
:102BB000482F0020C461010878060020B0050020DD
:102BC0000C62010814620108CDCCCCCC040D0020AD
:102BD000D4610108F81D0020A549A64810F0A4FF03
:102BE0000346DAB2A44B1A70A34B1B789AB20A239D
:102BF000A049A2480BF0B7FBA14B00221A64FEF7D4
:102C000055FF0020FFF7E8FD0346012B01D1FFF738
:102C10000BF99C4B1A789C4B1B789A4200F056811A
:102C20009A4B1B78012B40F05181994B1B78012B5B
:102C300040F04C81974B9B791A46964BDB791B02EF
:102C40001A43944B1B7A1B041A43924B5B7A1B0664
:102C500013431A46904B1A608E4B9B7A1AB28D4BD7
:102C6000DB7A1B021BB213431BB29AB28A4B9A80C7
:102C7000884B1A7B884B9A71864B5A7B864BDA714C
:102C8000844B9A7B844B1A72824BDA7B824B5A724A
:102C9000804B1A7C804B9A727E4B9B7D1A467E4BF2
:102CA000DA607C4B9B7F1A467A4BDB7F1B021A4310
:102CB000784B93F820301B041A43764B93F821305D
:102CC0001B061343744A1361724B93F822301A4661
:102CD000704B93F823301B021A436E4B93F8243049
:102CE0001B041A436B4B93F825301B0613436A4AA7
:102CF0005361684B93F842301A46664B93F8433061
:102D00001B021A43634B93F844301B041A43614B74
:102D100093F845301B0613435F4A93615E4B9B69F2
:102D200007EE903AF8EEE77A17EE900AFDF72CFCE2
:102D30004DA3D3E90023FDF7A9FD02460B4610463B
:102D40001946FDF751FF0346544A1360524B1B6866
:102D50001A465349534810F0E7FE4F4B1B691A4679
:102D60004F49514810F0E0FE4F494E4810F0FCFE2C
:102D7000494B5B691A464D494B4810F0D5FE4A490C
:102D8000484810F0F1FE4A4946480FF06AFF494BA7
:102D90001A69414B1B699A4205D1464B5A693E4B11
:102DA0005B699A425BD0FFF713FC434B1A88434B95
:102DB0001B889A424BD03F4E414B0A93364B03AC93
:102DC0001D460FCD0FC495E8070084E807006C4648
:102DD00006F1100393E8070084E8070096E80F0067
:102DE000FFF7B0FB2C4B5A7A324B5A722A4B9A7A25
:102DF000304B9A72284B1A7A2E4B1A72264BDB688C
:102E00002C4AD3602E4B5B7A1A462E49254810F087
:102E10008BFE2B4B9B7A1A462A49234810F084FEDE
:102E20002149204810F0A0FE254BDB681A461F49B7
:102E30001D4810F079FE1C491A4810F095FE2249F1
:102E400018480FF00EFF1C4B1A881C4B1A80124BAF
:102E50001B69184A1361104B5B69164A5361094B91
:102E60001A78094B1A7031E0B81E85EB515C71403D
:102E7000E861010878060020B00500205C2E0020E3
:102E800000000140341D0020480B00208A03002070
:102E9000920300204C050020EC0400207406002062
:102EA000F46101080C0900207C3F0020F861010852
:102EB000F81D002008060020D0030020D2030020C7
:102EC0003C1D0020FC610108040D00204FF400515E
:102ED000AF4803F0CDFD0346012B03D04FF47A70C9
:102EE00002F06AF9AB4B1B78002B14D1AA4B1B885C
:102EF0001A46AA4B1B8808339A420CD10020FFF7D0
:102F00006BFC0346022B06D10020FFF76DFAA24BA3
:102F10001A88A24B1A809F4B1B78002B10D19E4B16
:102F20001B881A469D4B1B8808339A4208D1002003
:102F3000FFF752FC0346002B02D1994B00221A6482
:102F4000984B1B78012B3CD100BF97499748FEF75F
:102F5000E1F9034683F00103DBB2002B642002F0A9
:102F60002BF900BF924B934A93499048FEF740FDDE
:102F7000034683F00103DBB2002B8F4B1B6818461E
:102F8000FDF702FB04460D468A4B1B681846FDF709
:102F9000FBFA02460B46CDE9002322462B46874921
:102FA000874810F0C1FD03469AB2864B1A80854BC4
:102FB0001A886423824984480BF0D5F9794B0022A2
:102FC0001A70744B1B78012B40F05A81724B1A888F
:102FD000724B1B889A4200F053817C4B1B78012B6B
:102FE0004DD16D4B1B881846FDF7BCFA64A3D3E99D
:102FF0000023FDF721FB02460B4610461946FDF75C
:10300000F3FD0346724A1360634B1B881846FDF7B5
:10301000A9FA5BA3D3E90023FDF70EFB02460B469A
:1030200010461946FDF7E0FD03466A4A13605A4B05
:103030001B88FA2B14D9584B1B881846FDF792FAB7
:1030400002460B4650A1D1E90001FDF73DF90246C9
:103050000B4610461946FDF7C7FD03465D4A13604F
:103060004D4B1B885B009AB25B4B1A805B4B5C4AF2
:103070001A60494B1B885B009AB25A4B1A805A4B14
:10308000D3ED007A9FED597A67EE877AFCEEE77A06
:1030900017EE903A9AB2404B5A804D4BD3ED007ADE
:1030A000B2EE007A67EE877AFCEEE77A17EE903A96
:1030B0009AB2394B9A80474BD3ED007AB2EE007A40
:1030C00067EE877AFCEEE77A17EE903A9AB2324BC7
:1030D000DA80414B1B881B019AB22F4B1A813E4B61
:1030E0001B881B019AB22C4B5A813C4BD3ED007AC2
:1030F0009FED3F7A67EE877AFCEEE77A17EE903A1B
:103100009AB2254B9A81354BD3ED007A9FED387AF0
:1031100067EE877AFCEEE77A17EE903A9AB21E4B8A
:10312000DA81304B1B881B019AB21B4B1A822D4B44
:103130005B881B019AB2184B5A8214221649224806
:103140000BF0A4F9144B1B881A462A4B1B88083332
:103150009A420ED1104B1A88264B1A80264B1B78A8
:10316000002B06D00120FEF7C1FC03469AB21A4B91
:103170001A80094B1B881A4640E000BFAFF300805D
:103180006443976D305FC43FD0B7054BF5E44340CF
:1031900000080240A4030020080C0020A603002021
:1031A00000000140BA030020542E0020282E0020E9
:1031B0002C090020AC08002028060020006201082D
:1031C000AC060020680C00205C2E00208B03002041
:1031D000A00300209C0300208A0A00208C0A002003
:1031E00033337B41B0080020980300200000804367
:1031F00000008044AA0300208C0300205C4B1B8845
:1032000001339A421CD15B4B1B78002B18D0002055
:10321000FFF77CF910EE103A1846FDF7B5F952A306
:10322000D3E90023FDF708FA02460B46104619467B
:10323000FDF7DAFC0346504A13600020FFF7D4F88C
:103240004E4B1B881A464A4B1B8802339A4213D1B5
:103250004B4B1B78002B0FD04A4B1B881846FEF7B0
:1032600013FC07EE900AB8EEE77AF2EE046AC7EEB6
:10327000267A414BC3ED007A404B1A88424B1A80A4
:10328000424B1B8813333D4A1288934240DA404B2D
:103290001B78002B3CD03F4B1B8807EE903AB8EED2
:1032A000E77A3D4BD3ED007AB4EEE77AF1EE10FA0F
:1032B0000DD5394BD3ED007A9FED387AF4EEC77A0D
:1032C000F1EE10FA03D5364B4FF4BE725A63314B10
:1032D0001B880A3B07EE903AB8EEE77A2E4BD3ED07
:1032E000007AB4EEE77AF1EE10FA0DDB2A4BD3ED5B
:1032F000007A9FED2A7AF4EEC77AF1EE10FA03D540
:10330000274B4FF4FA725A631C4B1A881F4B1A80D2
:10331000244B1B880533194A12889342BFF671ACBF
:10332000214B1B78002B3FF46CAC204B1B78002BFF
:103330003FF467AC0FF03CFD1D4B1B880222194681
:1033400002200FF06BFE1B4BD3ED007AFCEEE77A08
:10335000032217EE901A08200FF060FE074B1A8820
:10336000104B1A804DE400BF6666666666662D40A7
:10337000AA0300208F0300208C0A0020080C0020E4
:1033800093030020B0080020A6030020A80300201B
:10339000910300200A000020A00300200080A64323
:1033A00000200040AC0300208E0300208A03002090
:1033B000D00300207406002080B594B000AF07F160
:1033C0001C033422002118460FF03CFF07F10803CC
:1033D00000221A605A609A60DA601A6100237B60EA
:1033E0002E4B1B6C2D4A43F0805313642B4B1B6CEC
:1033F00003F080537B607B6800233B60284B1B6895
:10340000274A43F440431360254B1B6803F44043B1
:103410003B603B680923FB614FF480333B62002330
:103420007B6201233B6302237B634FF48003BB6316
:103430000423FB63B4233B6402237B640823BB6443
:103440000223FB6407F11C03184606F05BFE0346EB
:10345000002B01D000F05EFF06F00EF80346002BB3
:1034600001D000F057FF0F23BB600323FB60002354
:103470003B614FF4A0537B614FF48053BB6107F174
:1034800008030521184606F047F80346002B01D033
:1034900000F040FF00BF5037BD4680BD00380240FD
:1034A0000070004080B584B000AF3B4600221A6037
:1034B0005A609A60DA605B4B5B4A1A60594B4FF472
:1034C00080325A60574B00229A60564B01221A6193
:1034D000544B01221A76534B002283F82020514B83
:1034E0000022DA624F4B514A9A624E4B0022DA6058
:1034F0004C4B0922DA614B4B012283F83020494BB7
:1035000000225A61474801F07BFE0346002B01D0A0
:1035100000F000FF08233B6001237B600023BB60B9
:103520003B4619463F4802F027F90346002B01D0DD
:1035300000F0F0FE01233B6002237B603B4619460E
:10354000384802F019F90346002B01D000F0E2FEE2
:103550000B233B6003237B600123BB603B46194682
:10356000304802F009F90346002B01D000F0D2FEEA
:103570000C233B6004237B600023BB603B46194661
:10358000284802F0F9F80346002B01D000F0C2FEF3
:103590000D233B6005237B603B461946214802F022
:1035A000EBF80346002B01D000F0B4FE04233B608F
:1035B00006237B603B4619461A4802F0DDF80346B5
:1035C000002B01D000F0A6FE09233B6007237B609F
:1035D0003B461946134802F0CFF80346002B01D0B2
:1035E00000F098FE0A233B6008237B603B461946A7
:1035F0000C4802F0C1F80346002B01D000F08AFE0F
:1036000006233B6009237B603B461946054802F0D0
:10361000B3F80346002B01D000F07CFE00BF10374A
:10362000BD4680BDC4080020002001400100000FFD
:1036300080B500AF124B134A1A60114B124A5A6000
:103640000F4B00229A600E4B0022DA600C4B4FF4B5
:1036500080421A610A4B00225A61094B00229A618A
:10366000074B0022DA61064B00221A62044803F07D
:103670004BFA0346002B01D000F04CFE00BF80BD8A
:10368000B405002000540040A086010080B500AFC2
:103690000F4B104A1A600E4B00225A600C4B7F22CF
:1036A0009A600B4BFF22DA60094B00221A61084B2B
:1036B00000225A61064B00229A61054806F0C0FFBD
:1036C0000346002B01D000F025FE00BF80BD00BFE7
:1036D0004C0B00200028004080B400AF0C4B0D4A7A
:1036E0001A600B4B00225A60094B00229A60084B6B
:1036F0000022DA60064B00221A61054B00225A6153
:10370000034B00229A6100BFBD465DF8047B704701
:10371000740C0020002C014080B500AF184B194AF2
:103720001A60174B4FF482725A60154B00229A6050
:10373000134B4FF40062DA60114B00221A61104BF8
:1037400001225A610E4B4FF400729A610C4B182201
:10375000DA610B4B00221A62094B00225A62084BB5
:1037600000229A62064B0A22DA62054808F099FBA9
:103770000346002B01D000F0CDFD00BF80BD00BF8F
:10378000581D00200030014080B592B000AF07F115
:10379000400300221A605A6007F1240300221A60D5
:1037A0005A609A60DA601A615A619A613B1D202260
:1037B000002118460FF046FD344B354A1A60354B50
:1037C0001B881A46314B5A60304B00229A602F4BAF
:1037D0004FF47A72DA602D4B00221A612B4B0022D3
:1037E0005A612A4B00229A61284809F03AFB0346A5
:1037F000002B01D000F08EFD00233B6400237B648E
:1038000007F14003194621480AF07EFC0346002BCD
:1038100001D000F07FFD60237B624FF47A73BB62BE
:103820000223FB6200237B634FF48073BB6300239E
:10383000FB6307F124030C221946144809F0A0FF8A
:103840000346002B01D000F065FD00237B600023C0
:10385000BB600023FB6000233B6100237B614FF4CE
:103860000053BB6100233B623B1D194607480AF029
:10387000C7FC0346002B01D000F04CFD034801F0CB
:1038800075F900BF4837BD4680BD00BF1C0C002045
:10389000000001400000002080B586B000AF07F1B5
:1038A000100300221A605A603B4600221A605A60D8
:1038B0009A60DA60274B4FF080421A60264B1B88D3
:1038C0001A46244B5A60234B00229A60214B4FF03A
:1038D000FF32DA601F4B00221A611E4B00229A61F0
:1038E0001C4809F0D5FB0346002B01D000F012FD67
:1038F00000233B6100237B6107F110031946154843
:103900000AF002FC0346002B01D000F003FD002367
:103910003B6001237B600023BB600023FB603B46D0
:10392000002219460B4809F08FFE0346002B01D0F8
:1039300000F0F0FC3B4604221946064809F084FEDC
:103940000346002B01D000F0E5FC00BF1837BD4650
:1039500080BD00BFB01D00208803002080B58AB064
:1039600000AF07F1200300221A605A603B1D0022BD
:103970001A605A609A60DA601A615A619A61234B40
:10398000234A1A60234B1B881A46204B5A601F4B50
:1039900000229A601D4B4FF47A72DA601B4B0022B2
:1039A0001A611A4B00229A61184809F05AFA034624
:1039B000002B01D000F0AEFC00233B6200237B62B1
:1039C00007F12003194611480AF09EFB0346002B1D
:1039D00001D000F09FFC60237B604FF47A73BB60E2
:1039E0000023FB6000237B613B1D0422194607482E
:1039F00009F0C6FE0346002B01D000F08BFC034803
:103A000001F0B4F800BF2837BD4680BD2C06002069
:103A1000000400400000002080B588B000AF3B1DCE
:103A200000221A605A609A60DA601A615A619A61DB
:103A30001D4B1E4A1A601C4B44F2DF725A601A4B2F
:103A400000229A60184B42F20F72DA60164B002285
:103A50001A61154B00229A61134809F0E9F80346F0
:103A6000002B01D000F056FC0F4809F0A1F90346E5
:103A7000002B01D000F04EFC00237B600023BB60D4
:103A80000023FB6000237B613B1D00221946064892
:103A900009F07EFD0346002B01D000F03BFC00BF87
:103AA0002037BD4680BD00BF400A002000480140CD
:103AB00080B500AF0F4B104A1A60104B1B881A4696
:103AC0000C4B5A600B4B00229A600D4B1B881A4618
:103AD000084BDA60074B00221A61064B00229A61FC
:103AE000044809F0A5F80346002B01D000F012FCB1
:103AF00000BF80BDF8090020001C0040020000202B
:103B00000600002080B588B000AF3B1D00221A607F
:103B10005A609A60DA601A615A619A611F4B204AB2
:103B20001A60204B1B881A461C4B5A601B4B002204
:103B30009A601D4B1B881A46184BDA60174B0022FF
:103B40001A61164B00229A61144809F071F8034675
:103B5000002B01D000F0DEFB104809F082F903468B
:103B6000002B01D000F0D6FB60237B600023BB60FC
:103B70000023FB6000237B613B1D002219460748A0
:103B800009F0FEFD0346002B01D000F0C3FB034803
:103B900000F0ECFF00BF2037BD4680BD002F0020A5
:103BA00000200040040000200800002080B500AF85
:103BB000114B124A1A60104B4FF4E1325A600E4B0F
:103BC00000229A600C4B0022DA600B4B00221A6133
:103BD000094B0C225A61084B00229A61064B0022C5
:103BE000DA6105480AF072FB0346002B01D000F0B1
:103BF00091FB00BF80BD00BF5C2E00200044004050
:103C000080B500AF114B124A1A60104B4FF4E122FD
:103C10005A600E4B00229A600C4B0022DA600B4B6C
:103C200000221A61094B0C225A61084B00229A614A
:103C3000064B0022DA6105480AF048FB0346002BD8
:103C400001D000F067FB00BF80BD00BF0805002069
:103C50000048004080B582B000AF00237B603F4B3E
:103C60001B6B3E4A43F4001313633C4B1B6B03F482
:103C700000137B607B6800233B60384B1B6B374A2B
:103C800043F480031363354B1B6B03F480033B60E9
:103C90003B68334B334A1A60314B00225A60304B39
:103CA00080229A602E4B4FF40072DA602C4B4FF456
:103CB00080621A612A4B00225A61294B00229A61C4
:103CC000274B0022DA61264B00221A62244B042281
:103CD0005A62234B03229A62214B0022DA62204B64
:103CE00000221A631E4802F013F90346002B01D08C
:103CF00000F010FB00220021102002F0D2F810206A
:103D000002F0EBF800220021112002F0CAF8112085
:103D100002F0E3F800220021382002F0C2F8382037
:103D200002F0DBF8002200213B2002F0BAF83B2031
:103D300002F0D3F8002200213C2002F0B2F83C202F
:103D400002F0CBF800220021452002F0AAF845201D
:103D500002F0C3F800BF0837BD4680BD00380240FE
:103D6000900900202864024080B58AB000AF07F1B6
:103D7000140300221A605A609A60DA601A61002304
:103D80003B613E4B1B6B3D4A43F0040313633B4BCB
:103D90001B6B03F004033B613B690023FB60374B63
:103DA0001B6B364A43F080031363344B1B6B03F0E9
:103DB0008003FB60FB680023BB60304B1B6B2F4A0A
:103DC00043F0010313632D4B1B6B03F00103BB6036
:103DD000BB6800237B60294B1B6B284A43F002031E
:103DE0001363264B1B6B03F002037B607B6800238D
:103DF0003B60224B1B6B214A43F0080313631F4BAC
:103E00001B6B03F008033B603B6800224BF2207100
:103E10001B4802F045FE002240211A4802F040FEF5
:103E20004FF4C0437B610023BB610023FB6107F1BA
:103E300014031946134802F087FC4BF220737B6190
:103E40000123BB610023FB6100233B6207F11403E4
:103E500019460B4802F078FC40237B610123BB61CB
:103E60000023FB6100233B6207F114031946054858
:103E700002F06AFC00BF2837BD4680BD0038024012
:103E8000000002400008024080B582B000AF7860B8
:103E90007B68264A934245D12021254802F019FE2D
:103EA000244B1B8801339AB2224B1A80224B1B6889
:103EB0005B6A9AB2214B1A80204B1A88204B1B88D0
:103EC0009A420CD31D4B1A881D4B1B88D31A9AB2E9
:103ED0001C4B1A80194B1A88194B1A8015E0174B86
:103EE0001A88174B1B889A420FD2144B1A88144B0E
:103EF0001B88D31A9BB203F51C5311339AB2114B92
:103F00001A800E4B1A880E4B1A800E4B1B8807EE38
:103F1000903AB8EE677ADFED0C6AC6EE877A0B4B03
:103F2000C3ED007A00BF0837BD4680BDF809002008
:103F300000000240080C0020400A0020880A0020EF
:103F4000F00900206C0B0020002019469803002087
:103F500080B582B000AF78607B68494A934243D114
:103F60007B681B7F022B3FD10421786809F0CAFCD3
:103F70000346444A1360434B1A68434B1B689A42FA
:103F80000BD9404B1A68404B1B68D31A3F4A136049
:103F90003C4B1B683C4A136013E03A4B1A683A4B9F
:103FA0001B689A420BD8374B1A68374B1B68D31AD9
:103FB000364A1360334B1B68334A136001E000F04C
:103FC000A9F905F09BFB07EE900AF8EE676A2F4B04
:103FD0001B6807EE903AB8EE677AC6EE877A77EEFE
:103FE000A77A2B4BC3ED007A7B68254A934243D1D5
:103FF0007B681B7F012B3FD10021786809F082FC90
:104000000346244A1360234B1A68234B1B689A42C9
:104010000BD9204B1A68204B1B68D31A1F4A136018
:104020001C4B1B681C4A136013E01A4B1A681A4B8E
:104030001B689A420BD8174B1A68174B1B68D31A88
:10404000164A1360134B1B68134A136001E000F01B
:1040500061F905F053FB07EE900AF8EE676A0F4B23
:104060001B6807EE903AB8EE677AC6EE877A77EE6D
:10407000A77A0B4BC3ED007A00BF0837BD4680BD61
:10408000B01D0020440B0020A43F0020640C002041
:104090009C030020FC0C0020700C00202406002053
:1040A000A003002080B582B000AF78607B68844AAE
:1040B000934240F0EC80834B1B78742B0FD18249E4
:1040C00082480FF031FD0346DAB2814B1A70804B03
:1040D0001B789AB20A237D4979480AF044F9794B52
:1040E0001B786C2B34D1774BDB79312B18D1202105
:1040F000784802F0EEFC01210020FEF781FB7649B2
:1041000072480FF011FD0346DAB2714B1A70704B12
:104110001B789AB20A236D4969480AF024F917E01E
:1041200000210020FEF76CFB20216A4802F0D1FC40
:104130006A4966480FF0F8FC0346DAB2644B1A701D
:10414000634B1B789AB20A2360495D480AF00BF969
:104150005C4B1B78652B02D1614B01221A70594BC5
:104160001B786D2B40F093805E4B1B78002B05D1A4
:10417000FDF79CFC5B4B01221A7004E0594B0022B6
:104180001A70FDF793FC4F4B5B78302B03D1564BE5
:1041900040F2C1129A624B4B5B78312B03D1534BE7
:1041A0001A88514B9A62474B5B78322B02D14E4BA7
:1041B000B3229A62434B5B78332B02D14A4B86225F
:1041C0009A62404B5B78342B02D1474B59229A625A
:1041D0003C4B5B78352B02D1434B43229A62394BDF
:1041E0009B78302B02D1424B00221A70354B9B78C2
:1041F000312B02D13E4B01221A70324BDB78302B2F
:1042000002D13C4B00221A702E4BDB78312B02D1AD
:10421000384B01221A702B4B1B79302B06D1364BB1
:1042200000221A7000210020FEF7EAFA254B1B79C4
:10423000312B02D1304B01221A70224B5B79302B8B
:1042400002D12E4B00221A701E4B5B79312B02D10A
:104250002A4B01221A701B4B9B79302B02D1284B21
:1042600000221A70174B9B79312B02D1244B01226B
:104270001A70144BDB79302B02D1224B00221A70BA
:10428000104BDB79312B02D11E4B01221A707B6857
:104290001D4A93420FD11D4B1B78B52293420AD180
:1042A0001A4B5B786222934205D1194B1B7801337C
:1042B000DAB2174B1A7000BF0837BD4680BD00BF89
:1042C0005C2E0020B0030020206201087806002048
:1042D000B005002000000240286201083062010899
:1042E000BA030020A4030020001C004002000020AC
:1042F0008C0300208D0300208F03002090030020FA
:104300009303002094030020080500204C050020A2
:10431000341D002080B400AF00BFBD465DF8047BB3
:104320007047000080B483B000AF00237B60104B67
:104330005B6C0F4A43F4804353640D4B5B6C03F496
:1043400080437B607B6800233B60094B1B6C084A01
:1043500043F080531364064B1B6C03F080533B60A7
:104360003B6800BF0C37BD465DF8047B704700BF5B
:104370000038024080B58CB000AF786007F11C03B4
:1043800000221A605A609A60DA601A617B681B68C2
:104390004E4A934240F095800023BB614C4B5B6CCE
:1043A0004B4A43F480735364494B5B6C03F4807352
:1043B000BB61BB6900237B61454B1B6B444A43F0E7
:1043C00004031363424B1B6B03F004037B617B69A3
:1043D00000233B613E4B1B6B3D4A43F001031363DB
:1043E0003B4B1B6B03F001033B613B690023FB600C
:1043F000374B1B6B364A43F002031363344B1B6B82
:1044000003F00203FB60FB680F23FB6103233B62A5
:1044100000237B6207F11C0319462E4802F094F931
:104420005223FB6103233B6200237B6207F11C03E1
:104430001946294802F088F90323FB6103233B62F4
:1044400000237B6207F11C031946244802F07CF923
:10445000234B244A1A60224B00225A60204B002230
:104460009A601F4B0022DA601D4B4FF480621A6184
:104470001B4B4FF400625A61194B4FF400529A6182
:10448000174B4FF48072DA61154B4FF480321A6289
:10449000134B00225A62124801F03AFD0346002BEA
:1044A00001D0FFF737FF7B680D4A9A630C4A7B689F
:1044B000936300220021122001F0F3FC122001F08E
:1044C0000CFD00BF3037BD4680BD00BF002001405D
:1044D0000038024000080240000002400004024090
:1044E000E00A00207064024080B58AB000AF7860B6
:1044F00007F1140300221A605A609A60DA601A61A8
:104500007B681B68214A93423CD100233B61204BCE
:104510001B6B1F4A43F0020313631D4B1B6B03F01D
:1045200002033B613B694FF4C0737B611223BB61A3
:104530000123FB6103233B6204237B6207F1140325
:104540001946144802F000F90023FB60104B1B6C65
:104550000F4A43F4001313640D4B1B6C03F4001358
:10456000FB60FB68002200211F2001F09AFC1F2045
:1045700001F0B3FC00220021202001F092FC202059
:1045800001F0ABFC00BF2837BD4680BD00540040A1
:10459000003802400004024080B59AB000AF786055
:1045A00007F10C035C22002118460EF04BFE7B68DD
:1045B0001B680C4A934211D12023FB604FF4007317
:1045C000FB6407F10C03184605F0C0F80346002B06
:1045D00001D0FFF79FFE044B01221A6000BF68372D
:1045E000BD4680BD002800403C0E474280B5A2B0C9
:1045F00000AF786007F1740300221A605A609A6075
:10460000DA601A6107F118035C22002118460EF0E7
:1046100019FE7B681B68834A934240F0FE804FF48A
:104620004073BB610023FB660023FB6507F11803A1
:10463000184605F08BF80346002B01D0FFF76AFE01
:1046400000237B61784B5B6C774A43F400635364CF
:10465000754B5B6C03F400637B617B6900233B61FA
:10466000714B1B6B704A43F0020313636E4B1B6B61
:1046700003F002033B613B690023FB606A4B1B6B49
:10468000694A43F004031363674B1B6B03F0040395
:10469000FB60FB680023BB60634B1B6B624A43F00B
:1046A00008031363604B1B6B03F00803BB60BB681C
:1046B00004237B670223BB670023FB670323C7F840
:1046C00080300C23C7F8843007F17403194657482B
:1046D00002F03AF84FF470637B670223BB67002354
:1046E000FB670323C7F880300C23C7F8843007F139
:1046F000740319464E4802F027F804237B6702230F
:10470000BB670023FB670323C7F880300C23C7F87F
:10471000843007F174031946464802F015F8464BF9
:10472000464A1A60444B4FF000625A60424B4022A6
:104730009A60414B0022DA603F4B4FF480621A616D
:104740003D4B4FF480525A613B4B4FF480429A618B
:10475000394B2022DA61384B00221A62364B042290
:104760005A62354B03229A62334B4FF40002DA62ED
:10477000314B4FF400121A632F4801F0C9FB034676
:10478000002B01D0FFF7C6FD7B682B4ADA632A4A6B
:104790007B6893632A4B2B4A1A60294B4FF00062C7
:1047A0005A60274B00229A60254B0022DA60244B86
:1047B0004FF480621A61224B4FF480525A61204BB1
:1047C0004FF480429A611E4B2022DA611C4B00227A
:1047D0001A621B4B04225A62194B03229A62184B2D
:1047E0004FF40002DA62164B4FF400121A631448B9
:1047F00001F08EFB0346002B01D0FFF78BFD7B6899
:104800000F4A1A640E4A7B6893630022002131200C
:1048100001F047FB312001F060FB00BF8837BD4647
:1048200080BD00BF002C014000380240000402405F
:1048300000080240000C0240700B00205864024047
:1048400024040020A064024080B58AB000AF7860E4
:1048500007F1140300221A605A609A60DA601A6144
:104860007B681B68344A934262D100233B61334B1F
:104870005B6C324A43F480535364304B5B6C03F4FB
:1048800080533B613B690023FB602C4B1B6B2B4A25
:1048900043F002031363294B1B6B03F00203FB601D
:1048A000FB6838237B610223BB610023FB61032388
:1048B0003B6205237B6207F114031946204801F08F
:1048C00043FF204B204A1A601E4B4FF0C0625A60D3
:1048D0001C4B00229A601B4B0022DA60194B4FF4EC
:1048E00080621A61174B4FF400625A61154B002227
:1048F0009A61144B0022DA61124B00221A62114BAA
:1049000000225A620F4801F003FB0346002B01D03E
:10491000FFF700FD7B680B4ADA640A4A7B68936301
:1049200000220021232001F0BCFA232001F0D5FA57
:1049300000BF2837BD4680BD00300140003802402E
:1049400000040240A02E00201064024080B584B014
:1049500000AF78607B681B681C4A934216D1002325
:10496000FB601B4B5B6C1A4A43F001035364184B0A
:104970005B6C03F00103FB60FB68002200211A203E
:1049800001F08FFA1A2001F0A8FA1AE07B681B6880
:10499000104A934215D10023BB600D4B1B6C0C4A8F
:1049A00043F0020313640A4B1B6C03F00203BB6069
:1049B000BB68002200211D2001F073FA1D2001F0C8
:1049C0008CFA00BF1037BD4680BD00BF000001401B
:1049D000003802400004004080B58AB000AF786023
:1049E00007F1140300221A605A609A60DA601A61B3
:1049F0007B681B68B3F1804F52D100233B612A4B87
:104A00001B6C294A43F001031364274B1B6C03F012
:104A100001033B613B690023FB60234B1B6B224A74
:104A200043F001031363204B1B6B03F00103FB6096
:104A3000FB680023BB601C4B1B6B1B4A43F002034B
:104A40001363194B1B6B03F00203BB60BB680123AC
:104A50007B610223BB610023FB6100233B620123D6
:104A60007B6207F114031946104801F06DFE4FF404
:104A700000737B610223BB610023FB6100233B6267
:104A800001237B6207F114031946094801F05CFE1B
:104A9000002200211C2001F004FA1C2001F01DFA64
:104AA00000BF2837BD4680BD0038024000000240EC
:104AB0000004024080B586B000AF78607B681B6858
:104AC000264A934216D100237B61254B5B6C244A16
:104AD00043F480235364224B5B6C03F480237B619B
:104AE0007B69002200211A2001F0DBF91A2001F075
:104AF000F4F92EE07B681B681A4A934216D1002312
:104B00003B61174B1B6C164A43F080031364144B34
:104B10001B6C03F080033B613B69002200212C20C9
:104B200001F0BFF92C2001F0D8F912E07B681B6876
:104B30000D4A93420DD10023FB60094B1B6C084AC0
:104B400043F480731364064B1B6C03F48073FB60A7
:104B5000FB6800BF1837BD4680BD00BF004801405C
:104B600000380240001C00400020004080B58AB0A0
:104B700000AF786007F1140300221A605A609A604F
:104B8000DA601A617B681B68364A93421FD10023A2
:104B90003B61354B1B6B344A43F001031363324BCB
:104BA0001B6B03F001033B613B694FF400637B61C6
:104BB0000223BB610023FB6100233B6201237B6274
:104BC00007F114031946294801F0BEFD46E07B6851
:104BD0001B68274A93421ED10023FB60224B1B6BAC
:104BE000214A43F0040313631F4B1B6B03F00403C0
:104BF000FB60FB6880237B610223BB610023FB61B8
:104C000000233B6202237B6207F114031946194813
:104C100001F09AFD22E07B681B68174A93421DD180
:104C20000023BB60104B1B6B0F4A43F0010313635F
:104C30000D4B1B6B03F00103BB60BB6880237B61E2
:104C40000223BB610023FB6100233B6209237B62DB
:104C500007F114031946054801F076FD00BF283717
:104C6000BD4680BD00000140003802400000024007
:104C700000040040000802400020004080B58CB0D5
:104C800000AF786007F11C0300221A605A609A6036
:104C9000DA601A617B681B68784A934240F0928020
:104CA0000023BB61764B1B6C754A43F400331364DD
:104CB000734B1B6C03F40033BB61BB6900237B6146
:104CC0006F4B1B6B6E4A43F0010313636C4B1B6B02
:104CD00003F001037B617B690C23FB6102233B62D0
:104CE00000237B620323BB620723FB6207F11C03E3
:104CF0001946644801F028FD634B644A1A60624B10
:104D00004FF000625A60604B00229A605E4B0022B6
:104D1000DA605D4B4FF480621A615B4B00225A618E
:104D2000594B00229A61584B4FF48072DA61564B0E
:104D300000221A62544B00225A62534801F0E8F8EC
:104D40000346002B01D0FFF7E5FA7B684E4A9A63D1
:104D50004D4A7B6893634E4B4E4A1A604C4B4FF062
:104D600000625A604A4B40229A60494B0022DA6046
:104D7000474B4FF480621A61454B00225A61444B05
:104D800000229A61424B0022DA61414B00221A62F2
:104D90003F4B00225A623E4801F0BAF80346002B0E
:104DA00001D0FFF7B7FA7B68394A5A63384A7B6803
:104DB000936300220021262001F073F8262001F0E1
:104DC0008CF857E07B681B68334A934252D100232A
:104DD0003B612B4B1B6C2A4A43F480231364284B02
:104DE0001B6C03F480233B613B690023FB60244B75
:104DF0001B6B234A43F004031363214B1B6B03F02B
:104E00000403FB60FB680023BB601D4B1B6B1C4A4B
:104E100043F0020313631A4B1B6B03F00203BB60E6
:104E2000BB682023FB6102233B6200237B620323D8
:104E3000BB620723FB6207F11C031946174801F008
:104E400083FC4FF48063FB6112233B6200237B628F
:104E50000323BB620723FB6207F11C0319461048BA
:104E600001F072FC00220021272001F01AF827200F
:104E700001F033F800BF3037BD4680BD004400402C
:104E80000038024000000240840400208860024094
:104E900030090020A06002400048004000080240A5
:104EA0000004024080B400AFFEE780B400AFFEE72C
:104EB00080B400AFFEE780B400AFFEE780B400AF7F
:104EC000FEE780B400AF00BFBD465DF8047B7047CD
:104ED00080B400AF00BFBD465DF8047B704780B46E
:104EE00000AF00BFBD465DF8047B704780B500AFE2
:104EF00000F042F900BF80BD80B500AF024801F06C
:104F00009FF900BF80BD00BF8404002080B500AFC2
:104F1000024801F095F900BF80BD00BF30090020B4
:104F200080B500AF024800F0AEF900BF80BD00BF01
:104F3000C408002080B500AF034808F021FA0348F8
:104F400008F01EFA00BF80BD1C0C0020400A0020A3
:104F500080B500AF024808F013FA00BF80BD00BF63
:104F6000B01D002080B500AF024808F009FA00BF6C
:104F700080BD00BF2C06002080B500AF024802F0C3
:104F800027FA00BF80BD00BFB405002080B500AF88
:104F9000024802F08EFB00BF80BD00BFB4050020B8
:104FA00080B500AF024807F0F5FB00BF80BD00BF31
:104FB000581D002080B500AF024809F015FB00BF66
:104FC00080BD00BF5C2E002080B500AF024809F014
:104FD0000BFB00BF80BD00BF0805002080B500AFFF
:104FE000024808F0CDF900BF80BD00BFF8090020DD
:104FF00080B500AF024805F0ABFE00BF80BD00BF2A
:10500000740C002080B500AF024801F019F900BF10
:1050100080BD00BFA02E002080B500AF024801F087
:105020000FF900BF80BD00BF700B002080B500AF3E
:10503000024801F005F900BF80BD00BFE00A002072
:1050400080B500AF024801F0FBF800BF80BD00BF93
:105050002404002080B400AF084BD3F88830074AFE
:1050600043F47003C2F88830044B4FF000629A603A
:1050700000BFBD465DF8047B704700BF00ED00E057
:10508000DFF834D0002103E00C4B5B58435004316F
:105090000B480C4B42189A42F6D30B4A02E000230D
:1050A00042F8043B094B9A42F9D3FFF7D3FF0EF0C5
:1050B000A5F8FDF7BDFB704700000220246701083A
:1050C000000000206C0300206C0300202C600020F6
:1050D000FEE7000080B500AF0E4B1B680D4A43F49D
:1050E000007313600B4B1B680A4A43F48063136020
:1050F000084B1B68074A43F480731360032000F0D9
:10510000C5FE002000F008F8FFF70CF90023184650
:1051100080BD00BF003C024080B582B000AF786027
:10512000124B1A68124B1B7819464FF47A73B3FB73
:10513000F1F3B2FBF3F3184600F0DDFE0346002B5B
:1051400001D001230EE07B680F2B0AD8002279687A
:105150004FF0FF3000F0A5FE064A7B681360002385
:1051600000E0012318460837BD4680BD80010020BD
:10517000880100208401002080B400AF064B1B781A
:105180001A46064B1B681344044A136000BFBD4611
:105190005DF8047B704700BF88010020AC3F002011
:1051A00080B400AF034B1B681846BD465DF8047B16
:1051B000704700BFAC3F002080B584B000AF78607E
:1051C000FFF7EEFFB8607B68FB60FB68B3F1FF3F61
:1051D00005D00A4B1B781A46FB681344FB6000BFDE
:1051E000FFF7DEFF0246BB68D31AFA689A42F7D887
:1051F00000BF00BF1037BD4680BD00BF8801002042
:1052000080B584B000AF78600023FB737B68002B0F
:1052100001D1012333E07B681B6C002B09D1786836
:10522000FFF7A8F87B6800225A647B68002283F8A5
:105230003C207B681B6C03F01003002B18D17B68AB
:105240001B6C23F4885323F0020343F002027B68B3
:105250001A64786800F0C2FB7B6800225A647B689D
:105260001B6C23F0030343F001027B681A6401E026
:105270000123FB737B68002283F83C20FB7B1846EC
:105280001037BD4680BD80B584B000AF7860002384
:10529000FB600023BB607B681B681B6803F0020394
:1052A000022B0CBF01230023DBB2FB607B681B6871
:1052B0005B6803F02003202B0CBF01230023DBB22B
:1052C000BB60FB68002B49D0BB68002B46D07B68D5
:1052D0001B6C03F01003002B05D17B681B6C43F49F
:1052E00000727B681A647B681B689B6803F04053FC
:1052F000002B2BD17B681B7E002B27D17B681B6882
:10530000DB6A03F47003002B06D07B681B689B6884
:1053100003F48063002B19D17B681B685A687B6893
:105320001B6822F020025A607B681B6C23F4807299
:105330007B681A647B681B6C03F48053002B05D1D7
:105340007B681B6C43F001027B681A64786800F08C
:10535000EBF97B681B686FF012021A607B681B68B0
:105360001B6803F00403042B0CBF01230023DBB2F2
:10537000FB607B681B685B6803F08003802B0CBFBD
:1053800001230023DBB2BB60FB68002B57D0BB6856
:10539000002B54D07B681B6C03F01003002B05D14D
:1053A0007B681B6C43F400527B681A647B681B6843
:1053B0009B6803F44013002B39D17B681B689B6BFF
:1053C00003F44013002B06D07B681B689B6803F432
:1053D0008063002B2BD17B681B685B6803F48063C0
:1053E000002B24D17B681B689B6803F04053002B83
:1053F0001DD17B681B7E002B19D17B681B685A6806
:105400007B681B6822F080025A607B681B6C23F467
:1054100080527B681A647B681B6C03F48073002BDA
:1054200005D17B681B6C43F001027B681A647868C5
:1054300000F052FC7B681B686FF00C021A607B68FE
:105440001B681B6803F00103012B0CBF0123002321
:10545000DBB2FB607B681B685B6803F04003402B9A
:105460000CBF01230023DBB2BB60FB68002B17D00D
:10547000BB68002B14D07B681B681B6803F001031A
:10548000012B0DD17B681B6C43F480327B681A645E
:10549000786800F05DF97B681B686FF001021A60A4
:1054A0007B681B681B6803F02003202B0CBF0123C3
:1054B0000023DBB2FB607B681B685B6803F08063E2
:1054C000B3F1806F0CBF01230023DBB2BB60FB682C
:1054D000002B15D0BB68002B12D07B685B6C43F0AF
:1054E00002027B685A647B681B686FF020021A60B6
:1054F000786800F037F97B681B686FF020021A604B
:1055000000BF1037BD4680BD80B586B000AFF860E3
:10551000B9607A6000233B61FB6893F83C30012B53
:1055200001D10223E9E0FB68012283F83C20FB68FB
:105530001B689B6803F00103012B18D0FB681B68F4
:105540009A68FB681B6842F001029A606D4B1B6809
:105550006D4AA2FB03239A0C13465B0013443B6184
:1055600002E03B69013B3B613B69002BF9D1FB68E1
:105570001B689B6803F48073B3F5807F07D1FB68D9
:105580001B689A68FB681B6822F480729A60FB684B
:105590001B689B6803F00103012B40F0A180FB68AE
:1055A0001B6C23F4E06323F0010343F48072FB6877
:1055B0001A64FB681B685B6803F48063002B07D0E8
:1055C000FB681B6C23F4405343F48052FB681A645D
:1055D000FB681B6C03F48053B3F5805F06D1FB6856
:1055E0005B6C23F00602FB685A6402E0FB68002251
:1055F0005A64FB68002283F83C20444B7B61FB68C3
:105600009B6B434ADA63FB689B6B424A1A64FB68F4
:105610009B6B414ADA64FB681B686FF022021A60D8
:10562000FB681B685A68FB681B6842F080625A601E
:10563000FB681B689A68FB681B6842F480729A607A
:10564000FB68986BFB681B684C331946BA687B682B
:1056500000F00CFD7B695B6803F01F03002B2AD16F
:10566000FB681B682D4A934215D0FB681B682C4AC7
:10567000934205D1254B5B6803F01F03002B0AD032
:10568000FB681B68274A934236D1204B5B6803F0C6
:105690001003002B30D1FB681B689B6803F040535C
:1056A000002B29D1FB681B689A68FB681B6842F0D5
:1056B00080429A6020E0FB681B68184A93421BD125
:1056C000FB681B689B6803F04053002B14D1FB68F8
:1056D0001B689A68FB681B6842F080429A600BE086
:1056E000FB681B6C43F01002FB681A64FB685B6C80
:1056F00043F00102FB685A64002318461837BD4680
:1057000080BD00BF8001002083DE1B4300230140D9
:10571000D55B00088F5C0008AB5C000800200140EE
:10572000002101400022014080B483B000AF7860C6
:1057300000BF0C37BD465DF8047B704780B483B072
:1057400000AF786000BF0C37BD465DF8047B704742
:1057500080B483B000AF786000BF0C37BD465DF801
:10576000047B704780B483B000AF786000BF0C3713
:10577000BD465DF8047B704780B485B000AF7860AB
:1057800039600023BB607B6893F83C30012B01D16A
:10579000022313E17B68012283F83C203B681B68ED
:1057A000092B25D97B681B68D9683B681B689BB2AD
:1057B0001A4613465B0013441E3B072202FA03F30A
:1057C000DA437B681B680A40DA607B681B68D9682B
:1057D0003B689A683B681B689BB2184603465B00AF
:1057E00003441E3B9A407B681B680A43DA6022E050
:1057F0007B681B6819693B681B689BB21A46134695
:105800005B001344072202FA03F3DA437B681B6848
:105810000A401A617B681B6819693B689A683B6893
:105820001B689BB2184603465B0003449A407B68A2
:105830001B680A431A613B685B68062B24D87B68A7
:105840001B68596B3B685A6813469B001344053B21
:105850001F2202FA03F3DA437B681B680A405A638B
:105860007B681B68596B3B681B689BB218463B689A
:105870005A6813469B001344053B00FA03F27B6809
:105880001B680A435A634CE03B685B680C2B24D8C6
:105890007B681B68196B3B685A6813469B0013446E
:1058A000233B1F2202FA03F3DA437B681B680A409A
:1058B0001A637B681B68196B3B681B689BB21846B0
:1058C0003B685A6813469B001344233B00FA03F2DB
:1058D0007B681B680A431A6323E07B681B68D96AEC
:1058E0003B685A6813469B001344413B1F2202FA4F
:1058F00003F3DA437B681B680A40DA627B681B6843
:10590000D96A3B681B689BB218463B685A681346C5
:105910009B001344413B00FA03F27B681B680A4377
:10592000DA62294BFB607B681B68284A93420FD1DF
:105930003B681B68122B0BD1FB685B6823F40002E9
:10594000FB685A60FB685B6843F48002FB685A603E
:105950007B681B681D4A93422BD13B681B681C4A1D
:10596000934203D03B681B68112B22D1FB685B6814
:1059700023F48002FB685A60FB685B6843F4000212
:10598000FB685A603B681B68114A934211D1114B66
:105990001B68114AA2FB03239A0C13469B00134475
:1059A0005B00BB6002E0BB68013BBB60BB68002BD7
:1059B000F9D17B68002283F83C2000231846143775
:1059C000BD465DF8047B7047002301400020014084
:1059D000120000108001002083DE1B4380B485B0DC
:1059E00000AF7860794BFB60FB685B6823F4403262
:1059F000FB685A60FB685A687B685B681A43FB68FF
:105A00005A607B681B685A687B681B6822F4807246
:105A10005A607B681B6859687B681B691A027B683F
:105A20001B680A435A607B681B685A687B681B685E
:105A300022F040725A607B681B6859687B689A68DC
:105A40007B681B680A435A607B681B689A687B689E
:105A50001B6822F400629A607B681B6899687B6807
:105A6000DA687B681B680A439A607B689B6A584ABD
:105A7000934222D07B681B689A687B681B6822F07F
:105A800070629A607B681B6899687B689A6A7B6819
:105A90001B680A439A607B681B689A687B681B686E
:105AA00022F040529A607B681B6899687B68DA6ACA
:105AB0007B681B680A439A600FE07B681B689A68E2
:105AC0007B681B6822F070629A607B681B689A682A
:105AD0007B681B6822F040529A607B681B689A685A
